{
  "contractName": "Voting",
  "abi": [
    {
      "inputs": [
        {
          "internalType": "bytes32[]",
          "name": "candidateNames",
          "type": "bytes32[]"
        }
      ],
      "payable": false,
      "stateMutability": "nonpayable",
      "type": "constructor"
    },
    {
      "constant": true,
      "inputs": [
        {
          "internalType": "uint256",
          "name": "",
          "type": "uint256"
        }
      ],
      "name": "candidateList",
      "outputs": [
        {
          "internalType": "bytes32",
          "name": "",
          "type": "bytes32"
        }
      ],
      "payable": false,
      "stateMutability": "view",
      "type": "function"
    },
    {
      "constant": true,
      "inputs": [
        {
          "internalType": "uint256",
          "name": "",
          "type": "uint256"
        }
      ],
      "name": "courseMap",
      "outputs": [
        {
          "internalType": "bytes32",
          "name": "",
          "type": "bytes32"
        }
      ],
      "payable": false,
      "stateMutability": "view",
      "type": "function"
    },
    {
      "constant": true,
      "inputs": [
        {
          "internalType": "bytes32",
          "name": "",
          "type": "bytes32"
        }
      ],
      "name": "votesReceived",
      "outputs": [
        {
          "internalType": "uint8",
          "name": "",
          "type": "uint8"
        }
      ],
      "payable": false,
      "stateMutability": "view",
      "type": "function"
    },
    {
      "constant": false,
      "inputs": [],
      "name": "initVotes",
      "outputs": [],
      "payable": false,
      "stateMutability": "nonpayable",
      "type": "function"
    },
    {
      "constant": true,
      "inputs": [],
      "name": "getCourses",
      "outputs": [
        {
          "internalType": "bytes32[]",
          "name": "",
          "type": "bytes32[]"
        }
      ],
      "payable": false,
      "stateMutability": "view",
      "type": "function"
    },
    {
      "constant": true,
      "inputs": [],
      "name": "printVotes",
      "outputs": [
        {
          "internalType": "bytes32[]",
          "name": "",
          "type": "bytes32[]"
        },
        {
          "internalType": "uint8[]",
          "name": "",
          "type": "uint8[]"
        }
      ],
      "payable": false,
      "stateMutability": "view",
      "type": "function"
    },
    {
      "constant": true,
      "inputs": [
        {
          "internalType": "bytes32",
          "name": "candidate",
          "type": "bytes32"
        }
      ],
      "name": "totalVotesFor",
      "outputs": [
        {
          "internalType": "uint8",
          "name": "",
          "type": "uint8"
        }
      ],
      "payable": false,
      "stateMutability": "view",
      "type": "function"
    },
    {
      "constant": false,
      "inputs": [
        {
          "internalType": "bytes32",
          "name": "candidate",
          "type": "bytes32"
        }
      ],
      "name": "voteForCandidate",
      "outputs": [],
      "payable": false,
      "stateMutability": "nonpayable",
      "type": "function"
    },
    {
      "constant": true,
      "inputs": [
        {
          "internalType": "bytes32",
          "name": "candidate",
          "type": "bytes32"
        }
      ],
      "name": "validCandidate",
      "outputs": [
        {
          "internalType": "bool",
          "name": "",
          "type": "bool"
        }
      ],
      "payable": false,
      "stateMutability": "view",
      "type": "function"
    }
  ],
  "bytecode": "0x60806040526040518060a001604052807f4368696e6573650000000000000000000000000000000000000000000000000081526020017f456e676c6973680000000000000000000000000000000000000000000000000081526020017f4d6174680000000000000000000000000000000000000000000000000000000081526020017f436f6d707574657200000000000000000000000000000000000000000000000081526020017f4d7573696300000000000000000000000000000000000000000000000000000081525060029060056100db929190610233565b503480156100e857600080fd5b5060405161098f38038061098f8339818101604052602081101561010b57600080fd5b810190808051604051939291908464010000000082111561012b57600080fd5b8382019150602082018581111561014157600080fd5b825186602082028301116401000000008211171561015e57600080fd5b8083526020830192505050908051906020019060200280838360005b8381101561019557808201518184015260208101905061017a565b5050505090500160405250505080600190805190602001906101b8929190610280565b506101c76101cd60201b60201c565b506102f2565b60008090505b60018054905081101561023057600a600080600184815481106101f257fe5b9060005260206000200154815260200190815260200160002060006101000a81548160ff021916908360ff16021790555080806001019150506101d3565b50565b82805482825590600052602060002090810192821561026f579160200282015b8281111561026e578251825591602001919060010190610253565b5b50905061027c91906102cd565b5090565b8280548282559060005260206000209081019282156102bc579160200282015b828111156102bb5782518255916020019190600101906102a0565b5b5090506102c991906102cd565b5090565b6102ef91905b808211156102eb5760008160009055506001016102d3565b5090565b90565b61068e806103016000396000f3fe608060405234801561001057600080fd5b50600436106100935760003560e01c8063b13c744b11610066578063b13c744b146101b0578063b25800c0146101f2578063cc12647914610299578063cc9ab267146102f8578063ff4770aa1461032657610093565b806313543119146100985780632f265cf7146100da578063392e6678146101225780637021939f14610168575b600080fd5b6100c4600480360360208110156100ae57600080fd5b8101908080359060200190929190505050610330565b6040518082815260200191505060405180910390f35b610106600480360360208110156100f057600080fd5b8101908080359060200190929190505050610351565b604051808260ff1660ff16815260200191505060405180910390f35b61014e6004803603602081101561013857600080fd5b810190808035906020019092919050505061038c565b604051808215151515815260200191505060405180910390f35b6101946004803603602081101561017e57600080fd5b81019080803590602001909291905050506103e2565b604051808260ff1660ff16815260200191505060405180910390f35b6101dc600480360360208110156101c657600080fd5b8101908080359060200190929190505050610402565b6040518082815260200191505060405180910390f35b6101fa610423565b604051808060200180602001838103835285818151815260200191508051906020019060200280838360005b83811015610241578082015181840152602081019050610226565b50505050905001838103825284818151815260200191508051906020019060200280838360005b83811015610283578082015181840152602081019050610268565b5050505090500194505050505060405180910390f35b6102a1610548565b6040518080602001828103825283818151815260200191508051906020019060200280838360005b838110156102e45780820151818401526020810190506102c9565b505050509050019250505060405180910390f35b6103246004803603602081101561030e57600080fd5b81019080803590602001909291905050506105a0565b005b61032e6105f3565b005b6002818154811061033d57fe5b906000526020600020016000915090505481565b600061035c8261038c565b61036557600080fd5b60008083815260200190815260200160002060009054906101000a900460ff169050919050565b600080600090505b6001805490508110156103d75782600182815481106103af57fe5b906000526020600020015414156103ca5760019150506103dd565b8080600101915050610394565b50600090505b919050565b60006020528060005260406000206000915054906101000a900460ff1681565b6001818154811061040f57fe5b906000526020600020016000915090505481565b606080600060018054905090506060816040519080825280602002602001820160405280156104615781602001602082028038833980820191505090505b5090506060826040519080825280602002602001820160405280156104955781602001602082028038833980820191505090505b50905060008090505b8381101561053a57600181815481106104b357fe5b90600052602060002001548382815181106104ca57fe5b602002602001018181525050600080600183815481106104e657fe5b9060005260206000200154815260200190815260200160002060009054906101000a900460ff1682828151811061051957fe5b602002602001019060ff16908160ff1681525050808060010191505061049e565b508181945094505050509091565b6060600280548060200260200160405190810160405280929190818152602001828054801561059657602002820191906000526020600020905b815481526020019060010190808311610582575b5050505050905090565b6105a98161038c565b6105b257600080fd5b600160008083815260200190815260200160002060008282829054906101000a900460ff160192506101000a81548160ff021916908360ff16021790555050565b60008090505b60018054905081101561065657600a6000806001848154811061061857fe5b9060005260206000200154815260200190815260200160002060006101000a81548160ff021916908360ff16021790555080806001019150506105f9565b5056fea265627a7a723158203ffee7f18a56f18ab8f7b474babe1217b305c7d39bc36d61424b507b7cbbf4d364736f6c63430005100032",
  "source": "// SPDX-License-Identifier: MIT\n\npragma solidity ^0.5.16;\n\ncontract Voting {\n    mapping (bytes32 => uint8) public votesReceived;\n    bytes32[] public candidateList;\n    bytes32[] public courseMap = [bytes32(\"Chinese\"), \"English\", \"Math\", \"Computer\", \"Music\"];\n\n    // bytes32[] candidateList = [bytes32(\"Alice\"), bytes32(\"Bob\")];\n    //  Data location must be \"memory\" for parameter in function, but none was given.\n    constructor(bytes32[] memory candidateNames) public{\n        candidateList = candidateNames;\n        initVotes();\n    }\n\n    function initVotes() public {\n        for (uint i = 0; i < candidateList.length; i++) {\n            votesReceived[candidateList[i]] = 10;\n        }\n    }\n\n    function getCourses() view public returns (bytes32[] memory) {\n        return courseMap;\n    }\n\n    // ins.printVotes().then(function(res){console.log(res[0]); console.log(res[1])})\n    // ins.printVotes().then(function(res){for(i=0;i<3;i++){console.log(res[0][i]+': '+res[1][i])}})\n    function printVotes() view public returns (bytes32[] memory, uint8[] memory) {\n        uint len = candidateList.length;\n        // In Solidity, when declaring a variable inside a function, \n        // you need to specify the data location of the variable \n        // using the memory or storage keyword.\n        bytes32[] memory names = new bytes32[](len);\n        uint8[] memory votes = new uint8[](len);\n        \n        for (uint i = 0; i < len; i++) {\n            names[i] = candidateList[i];\n            votes[i] = votesReceived[candidateList[i]];\n        }\n        return (names, votes);\n    }\n\n    // 获取某个候选人的总票数\n    /**\n    这个函数在truffle console环境下有如下调用方法：\n    ins.totalVotesFor('0x1234')\n    ins.totalVotesFor.call('0x1234')\n    ins.totalVotesFor.sendTransaction('0x1234')\n    前两种调用仅仅是一个call，不会修改合约状态，也不会消耗gas。\n    第三种调用会发送一个交易。\n     */\n    /**\n    这个函数不需要指定参数的数据位置，因为参数candidate是一个bytes32类型，\n    它是一个值类型，而不是一个引用类型。值类型不需要指定数据位置，\n    因为它们总是通过值传递，并且总是被复制到内存或栈中。\n    只有引用类型（例如struct, array, mapping等）需要指定数据位置，以便编译器知道它们在哪里存储和访问。\n     */\n    function totalVotesFor(bytes32 candidate) view public returns (uint8) {\n        require(validCandidate(candidate));\n        return votesReceived[candidate];\n    }\n\n    // 投票给某个候选人\n    /**\n    这个函数在truffle console环境下有如下调用方法：\n    ins.voteForCandidate('0x1234')\n    ins.voteForCandidate.sendTransaction('0x1234')\n    ins.voteForCandidate.call('0x1234')\n    前两种调用会发送一个交易，修改合约状态，消耗gas。\n    第三种应该不是正确的调用方法。\n    */\n    function voteForCandidate(bytes32 candidate) public {\n        require(validCandidate(candidate));\n        votesReceived[candidate] += 1;\n    }\n\n    // Check if the candidate is valid\n    // 所有的被投票对象是一个数组。如何检测一个元素是否在数组中？没有简单的in操作。只能循环遍历。\n    // 但是，如果数组很大，这样的操作会消耗大量的gas。所以，我们需要一个更好的方法。\n    /**\n    mapping(bytes32 => bool) public candidateMap;\n    \n    function addCandidate() public {\n        for (uint i = 0; i < candidateList.length; i++) {\n            candidateMap[candidateList[i]] = true;\n        }\n    }\n    \n    function validCandidate(bytes32 candidate) view public returns (bool) {\n        return candidateMap[candidate];\n    }\n     */  \n    function validCandidate(bytes32 candidate) public view returns (bool) {\n        for(uint i = 0; i < candidateList.length; i++) {\n            if (candidateList[i] == candidate) {\n                return true;\n            }\n        }\n        return false;\n    }\n\n}",
  "sourcePath": "/Users/linus/Desktop/defi/simple-vote/contracts/Voting.sol",
  "compiler": {
    "name": "solc",
    "version": "0.5.16+commit.9c3226ce.Emscripten.clang"
  },
  "schemaVersion": "3.4.11",
  "updatedAt": "2023-05-08T15:51:22.417Z",
  "networkType": "ethereum",
  "devdoc": {
    "methods": {}
  },
  "userdoc": {
    "methods": {
      "totalVotesFor(bytes32)": {
        "notice": "这个函数不需要指定参数的数据位置，因为参数candidate是一个bytes32类型， 它是一个值类型，而不是一个引用类型。值类型不需要指定数据位置， 因为它们总是通过值传递，并且总是被复制到内存或栈中。 只有引用类型（例如struct, array, mapping等）需要指定数据位置，以便编译器知道它们在哪里存储和访问。"
      },
      "validCandidate(bytes32)": {
        "notice": "mapping(bytes32 => bool) public candidateMap; function addCandidate() public { for (uint i = 0; i < candidateList.length; i++) { candidateMap[candidateList[i]] = true; } } function validCandidate(bytes32 candidate) view public returns (bool) { return candidateMap[candidate]; }"
      },
      "voteForCandidate(bytes32)": {
        "notice": "这个函数在truffle console环境下有如下调用方法： ins.voteForCandidate('0x1234') ins.voteForCandidate.sendTransaction('0x1234') ins.voteForCandidate.call('0x1234') 前两种调用会发送一个交易，修改合约状态，消耗gas。 第三种应该不是正确的调用方法。"
      }
    }
  }
}