{
  "contractName": "Voting",
  "abi": [
    {
      "inputs": [
        {
          "internalType": "bytes32[]",
          "name": "candidateNames",
          "type": "bytes32[]"
        }
      ],
      "payable": false,
      "stateMutability": "nonpayable",
      "type": "constructor"
    },
    {
      "constant": true,
      "inputs": [
        {
          "internalType": "uint256",
          "name": "",
          "type": "uint256"
        }
      ],
      "name": "candidateList",
      "outputs": [
        {
          "internalType": "bytes32",
          "name": "",
          "type": "bytes32"
        }
      ],
      "payable": false,
      "stateMutability": "view",
      "type": "function"
    },
    {
      "constant": true,
      "inputs": [
        {
          "internalType": "bytes32",
          "name": "",
          "type": "bytes32"
        }
      ],
      "name": "votesReceived",
      "outputs": [
        {
          "internalType": "uint8",
          "name": "",
          "type": "uint8"
        }
      ],
      "payable": false,
      "stateMutability": "view",
      "type": "function"
    },
    {
      "constant": true,
      "inputs": [],
      "name": "getCandidateList",
      "outputs": [
        {
          "internalType": "bytes32[]",
          "name": "",
          "type": "bytes32[]"
        }
      ],
      "payable": false,
      "stateMutability": "view",
      "type": "function"
    },
    {
      "constant": false,
      "inputs": [],
      "name": "initVotes",
      "outputs": [],
      "payable": false,
      "stateMutability": "nonpayable",
      "type": "function"
    },
    {
      "constant": true,
      "inputs": [],
      "name": "printVotes",
      "outputs": [
        {
          "internalType": "bytes32[]",
          "name": "",
          "type": "bytes32[]"
        },
        {
          "internalType": "uint8[]",
          "name": "",
          "type": "uint8[]"
        }
      ],
      "payable": false,
      "stateMutability": "view",
      "type": "function"
    },
    {
      "constant": true,
      "inputs": [
        {
          "internalType": "bytes32",
          "name": "candidate",
          "type": "bytes32"
        }
      ],
      "name": "totalVotesFor",
      "outputs": [
        {
          "internalType": "uint8",
          "name": "",
          "type": "uint8"
        }
      ],
      "payable": false,
      "stateMutability": "view",
      "type": "function"
    },
    {
      "constant": false,
      "inputs": [
        {
          "internalType": "bytes32",
          "name": "candidate",
          "type": "bytes32"
        }
      ],
      "name": "voteForCandidate",
      "outputs": [],
      "payable": false,
      "stateMutability": "nonpayable",
      "type": "function"
    },
    {
      "constant": true,
      "inputs": [
        {
          "internalType": "bytes32",
          "name": "candidate",
          "type": "bytes32"
        }
      ],
      "name": "validCandidate",
      "outputs": [
        {
          "internalType": "bool",
          "name": "",
          "type": "bool"
        }
      ],
      "payable": false,
      "stateMutability": "view",
      "type": "function"
    }
  ],
  "bytecode": "0x608060405234801561001057600080fd5b506040516107883803806107888339818101604052602081101561003357600080fd5b810190808051604051939291908464010000000082111561005357600080fd5b8382019150602082018581111561006957600080fd5b825186602082028301116401000000008211171561008657600080fd5b8083526020830192505050908051906020019060200280838360005b838110156100bd5780820151818401526020810190506100a2565b5050505090500160405250505080600190805190602001906100e09291906100e7565b5050610159565b828054828255906000526020600020908101928215610123579160200282015b82811115610122578251825591602001919060010190610107565b5b5090506101309190610134565b5090565b61015691905b8082111561015257600081600090555060010161013a565b5090565b90565b610620806101686000396000f3fe608060405234801561001057600080fd5b50600436106100885760003560e01c8063b25800c01161005b578063b25800c0146101a5578063cc9ab2671461024c578063fdbc40061461027a578063ff4770aa146102d957610088565b80632f265cf71461008d578063392e6678146100d55780637021939f1461011b578063b13c744b14610163575b600080fd5b6100b9600480360360208110156100a357600080fd5b81019080803590602001909291905050506102e3565b604051808260ff1660ff16815260200191505060405180910390f35b610101600480360360208110156100eb57600080fd5b810190808035906020019092919050505061031e565b604051808215151515815260200191505060405180910390f35b6101476004803603602081101561013157600080fd5b8101908080359060200190929190505050610374565b604051808260ff1660ff16815260200191505060405180910390f35b61018f6004803603602081101561017957600080fd5b8101908080359060200190929190505050610394565b6040518082815260200191505060405180910390f35b6101ad6103b5565b604051808060200180602001838103835285818151815260200191508051906020019060200280838360005b838110156101f45780820151818401526020810190506101d9565b50505050905001838103825284818151815260200191508051906020019060200280838360005b8381101561023657808201518184015260208101905061021b565b5050505090500194505050505060405180910390f35b6102786004803603602081101561026257600080fd5b81019080803590602001909291905050506104da565b005b61028261052d565b6040518080602001828103825283818151815260200191508051906020019060200280838360005b838110156102c55780820151818401526020810190506102aa565b505050509050019250505060405180910390f35b6102e1610585565b005b60006102ee8261031e565b6102f757600080fd5b60008083815260200190815260200160002060009054906101000a900460ff169050919050565b600080600090505b60018054905081101561036957826001828154811061034157fe5b9060005260206000200154141561035c57600191505061036f565b8080600101915050610326565b50600090505b919050565b60006020528060005260406000206000915054906101000a900460ff1681565b600181815481106103a157fe5b906000526020600020016000915090505481565b606080600060018054905090506060816040519080825280602002602001820160405280156103f35781602001602082028038833980820191505090505b5090506060826040519080825280602002602001820160405280156104275781602001602082028038833980820191505090505b50905060008090505b838110156104cc576001818154811061044557fe5b906000526020600020015483828151811061045c57fe5b6020026020010181815250506000806001838154811061047857fe5b9060005260206000200154815260200190815260200160002060009054906101000a900460ff168282815181106104ab57fe5b602002602001019060ff16908160ff16815250508080600101915050610430565b508181945094505050509091565b6104e38161031e565b6104ec57600080fd5b600160008083815260200190815260200160002060008282829054906101000a900460ff160192506101000a81548160ff021916908360ff16021790555050565b6060600180548060200260200160405190810160405280929190818152602001828054801561057b57602002820191906000526020600020905b815481526020019060010190808311610567575b5050505050905090565b60008090505b6001805490508110156105e857600a600080600184815481106105aa57fe5b9060005260206000200154815260200190815260200160002060006101000a81548160ff021916908360ff160217905550808060010191505061058b565b5056fea265627a7a72315820866fc8e4fb124f8d7ea39cdaf3127b44a0fb134ed8104c8558cbc8d9f9c4aa7364736f6c63430005100032",
  "source": "// SPDX-License-Identifier: MIT\n\npragma solidity ^0.5.16;\n\ncontract Voting {\n    mapping (bytes32 => uint8) public votesReceived;\n    bytes32[] public candidateList;\n\n    // bytes32[] candidateList = [bytes32(\"Alice\"), bytes32(\"Bob\")];\n    constructor(bytes32[] memory candidateNames) public {\n        candidateList = candidateNames;\n    }\n\n    function getCandidateList() view public returns (bytes32[] memory) {\n        return candidateList;\n    }\n\n    function initVotes() public {\n        for (uint i = 0; i < candidateList.length; i++) {\n            votesReceived[candidateList[i]] = 10;\n        }\n    }\n\n    // ins.printVotes().then(function(res){console.log(res[0]); console.log(res[1])})\n    function printVotes() view public returns (bytes32[] memory, uint8[] memory) {\n        uint len = candidateList.length;\n        bytes32[] memory names = new bytes32[](len);\n        uint8[] memory votes = new uint8[](len);\n        \n        for (uint i = 0; i < len; i++) {\n            names[i] = candidateList[i];\n            votes[i] = votesReceived[candidateList[i]];\n        }\n        return (names, votes);\n    }\n\n    // 获取某个候选人的总票数\n    /**\n    这个函数在truffle console环境下有如下调用方法：\n    ins.totalVotesFor('0x1234')\n    ins.totalVotesFor.call('0x1234')\n    ins.totalVotesFor.sendTransaction('0x1234')\n    前两种调用仅仅是一个call，不会修改合约状态，也不会消耗gas。\n    第三种调用会发送一个交易。\n     */\n    function totalVotesFor(bytes32 candidate) view public returns (uint8) {\n        require(validCandidate(candidate));\n        return votesReceived[candidate];\n    }\n\n    // 投票给某个候选人\n    /**\n    这个函数在truffle console环境下有如下调用方法：\n    ins.voteForCandidate('0x1234')\n    ins.voteForCandidate.sendTransaction('0x1234')\n    ins.voteForCandidate.call('0x1234')\n    前两种调用会发送一个交易，修改合约状态，消耗gas。\n    第三种应该不是正确的调用方法。\n    */\n    function voteForCandidate(bytes32 candidate) public {\n        require(validCandidate(candidate));\n        votesReceived[candidate] += 1;\n    }\n\n    // Check if the candidate is valid\n    // 所有的被投票对象是一个数组。如何检测一个元素是否在数组中？没有简单的in操作。只能循环遍历。\n    function validCandidate(bytes32 candidate) view public returns (bool) {\n        for(uint i = 0; i < candidateList.length; i++) {\n            if (candidateList[i] == candidate) {\n                return true;\n            }\n        }\n        return false;\n    }\n\n}",
  "sourcePath": "/Users/linus/Desktop/defi/simple-vote/contracts/Voting.sol",
  "compiler": {
    "name": "solc",
    "version": "0.5.16+commit.9c3226ce.Emscripten.clang"
  },
  "schemaVersion": "3.4.11",
  "updatedAt": "2023-05-08T05:07:08.215Z",
  "networkType": "ethereum",
  "devdoc": {
    "methods": {}
  },
  "userdoc": {
    "methods": {
      "totalVotesFor(bytes32)": {
        "notice": "这个函数在truffle console环境下有如下调用方法： ins.totalVotesFor('0x1234') ins.totalVotesFor.call('0x1234') ins.totalVotesFor.sendTransaction('0x1234') 前两种调用仅仅是一个call，不会修改合约状态，也不会消耗gas。 第三种调用会发送一个交易。"
      },
      "voteForCandidate(bytes32)": {
        "notice": "这个函数在truffle console环境下有如下调用方法： ins.voteForCandidate('0x1234') ins.voteForCandidate.sendTransaction('0x1234') ins.voteForCandidate.call('0x1234') 前两种调用会发送一个交易，修改合约状态，消耗gas。 第三种应该不是正确的调用方法。"
      }
    }
  }
}