{
  "contractName": "Voting",
  "abi": [
    {
      "inputs": [
        {
          "internalType": "bytes32[]",
          "name": "candidateNames",
          "type": "bytes32[]"
        }
      ],
      "payable": false,
      "stateMutability": "nonpayable",
      "type": "constructor"
    },
    {
      "constant": true,
      "inputs": [
        {
          "internalType": "uint256",
          "name": "",
          "type": "uint256"
        }
      ],
      "name": "candidateList",
      "outputs": [
        {
          "internalType": "bytes32",
          "name": "",
          "type": "bytes32"
        }
      ],
      "payable": false,
      "stateMutability": "view",
      "type": "function"
    },
    {
      "constant": true,
      "inputs": [
        {
          "internalType": "bytes32",
          "name": "",
          "type": "bytes32"
        }
      ],
      "name": "votesReceived",
      "outputs": [
        {
          "internalType": "uint8",
          "name": "",
          "type": "uint8"
        }
      ],
      "payable": false,
      "stateMutability": "view",
      "type": "function"
    },
    {
      "constant": true,
      "inputs": [],
      "name": "printVotes",
      "outputs": [
        {
          "internalType": "bytes32[]",
          "name": "",
          "type": "bytes32[]"
        },
        {
          "internalType": "uint8[]",
          "name": "",
          "type": "uint8[]"
        }
      ],
      "payable": false,
      "stateMutability": "view",
      "type": "function"
    },
    {
      "constant": true,
      "inputs": [
        {
          "internalType": "bytes32",
          "name": "candidate",
          "type": "bytes32"
        }
      ],
      "name": "totalVotesFor",
      "outputs": [
        {
          "internalType": "uint8",
          "name": "",
          "type": "uint8"
        }
      ],
      "payable": false,
      "stateMutability": "view",
      "type": "function"
    },
    {
      "constant": false,
      "inputs": [
        {
          "internalType": "bytes32",
          "name": "candidate",
          "type": "bytes32"
        }
      ],
      "name": "voteForCandidate",
      "outputs": [],
      "payable": false,
      "stateMutability": "nonpayable",
      "type": "function"
    },
    {
      "constant": true,
      "inputs": [
        {
          "internalType": "bytes32",
          "name": "candidate",
          "type": "bytes32"
        }
      ],
      "name": "validCandidate",
      "outputs": [
        {
          "internalType": "bool",
          "name": "",
          "type": "bool"
        }
      ],
      "payable": false,
      "stateMutability": "view",
      "type": "function"
    }
  ],
  "bytecode": "0x608060405234801561001057600080fd5b5060405161063b38038061063b8339818101604052602081101561003357600080fd5b810190808051604051939291908464010000000082111561005357600080fd5b8382019150602082018581111561006957600080fd5b825186602082028301116401000000008211171561008657600080fd5b8083526020830192505050908051906020019060200280838360005b838110156100bd5780820151818401526020810190506100a2565b5050505090500160405250505080600190805190602001906100e09291906100e7565b5050610159565b828054828255906000526020600020908101928215610123579160200282015b82811115610122578251825591602001919060010190610107565b5b5090506101309190610134565b5090565b61015691905b8082111561015257600081600090555060010161013a565b5090565b90565b6104d3806101686000396000f3fe608060405234801561001057600080fd5b50600436106100625760003560e01c80632f265cf714610067578063392e6678146100af5780637021939f146100f5578063b13c744b1461013d578063b25800c01461017f578063cc9ab26714610226575b600080fd5b6100936004803603602081101561007d57600080fd5b8101908080359060200190929190505050610254565b604051808260ff1660ff16815260200191505060405180910390f35b6100db600480360360208110156100c557600080fd5b810190808035906020019092919050505061028f565b604051808215151515815260200191505060405180910390f35b6101216004803603602081101561010b57600080fd5b81019080803590602001909291905050506102e5565b604051808260ff1660ff16815260200191505060405180910390f35b6101696004803603602081101561015357600080fd5b8101908080359060200190929190505050610305565b6040518082815260200191505060405180910390f35b610187610326565b604051808060200180602001838103835285818151815260200191508051906020019060200280838360005b838110156101ce5780820151818401526020810190506101b3565b50505050905001838103825284818151815260200191508051906020019060200280838360005b838110156102105780820151818401526020810190506101f5565b5050505090500194505050505060405180910390f35b6102526004803603602081101561023c57600080fd5b810190808035906020019092919050505061044b565b005b600061025f8261028f565b61026857600080fd5b60008083815260200190815260200160002060009054906101000a900460ff169050919050565b600080600090505b6001805490508110156102da5782600182815481106102b257fe5b906000526020600020015414156102cd5760019150506102e0565b8080600101915050610297565b50600090505b919050565b60006020528060005260406000206000915054906101000a900460ff1681565b6001818154811061031257fe5b906000526020600020016000915090505481565b606080600060018054905090506060816040519080825280602002602001820160405280156103645781602001602082028038833980820191505090505b5090506060826040519080825280602002602001820160405280156103985781602001602082028038833980820191505090505b50905060008090505b8381101561043d57600181815481106103b657fe5b90600052602060002001548382815181106103cd57fe5b602002602001018181525050600080600183815481106103e957fe5b9060005260206000200154815260200190815260200160002060009054906101000a900460ff1682828151811061041c57fe5b602002602001019060ff16908160ff168152505080806001019150506103a1565b508181945094505050509091565b6104548161028f565b61045d57600080fd5b600160008083815260200190815260200160002060008282829054906101000a900460ff160192506101000a81548160ff021916908360ff1602179055505056fea265627a7a723158202a1558d64f0a73448ec54f7be8b8a17dd8f0e94bd10eac817fdd77d88551d96164736f6c63430005100032",
  "source": "// SPDX-License-Identifier: MIT\n\npragma solidity ^0.5.16;\n\ncontract Voting {\n    mapping (bytes32 => uint8) public votesReceived;\n    bytes32[] public candidateList;\n\n    // bytes32[] candidateList = [bytes32(\"Alice\"), bytes32(\"Bob\")];\n    //  Data location must be \"memory\" for parameter in function, but none was given.\n    constructor(bytes32[] memory candidateNames) public{\n        candidateList = candidateNames;\n    }\n    \n    // ins.printVotes().then(function(res){console.log(res[0]); console.log(res[1])})\n    // ins.printVotes().then(function(res){for(i=0;i<3;i++){console.log(res[0][i]+': '+res[1][i])}})\n    function printVotes() view public returns (bytes32[] memory, uint8[] memory) {\n        uint len = candidateList.length;\n        // In Solidity, when declaring a variable inside a function, \n        // you need to specify the data location of the variable \n        // using the memory or storage keyword.\n        bytes32[] memory names = new bytes32[](len);\n        uint8[] memory votes = new uint8[](len);\n        \n        for (uint i = 0; i < len; i++) {\n            names[i] = candidateList[i];\n            votes[i] = votesReceived[candidateList[i]];\n        }\n        return (names, votes);\n    }\n\n    // 获取某个候选人的总票数\n    /**\n    这个函数在truffle console环境下有如下调用方法：\n    ins.totalVotesFor('0x1234')\n    ins.totalVotesFor.call('0x1234')\n    ins.totalVotesFor.sendTransaction('0x1234')\n    前两种调用仅仅是一个call，不会修改合约状态，也不会消耗gas。\n    第三种调用会发送一个交易。\n     */\n    /**\n    这个函数不需要指定参数的数据位置，因为参数candidate是一个bytes32类型，\n    它是一个值类型，而不是一个引用类型。值类型不需要指定数据位置，\n    因为它们总是通过值传递，并且总是被复制到内存或栈中。\n    只有引用类型（例如struct, array, mapping等）需要指定数据位置，以便编译器知道它们在哪里存储和访问。\n     */\n    function totalVotesFor(bytes32 candidate) view public returns (uint8) {\n        require(validCandidate(candidate));\n        return votesReceived[candidate];\n    }\n\n    // 投票给某个候选人\n    /**\n    这个函数在truffle console环境下有如下调用方法：\n    ins.voteForCandidate('0x1234')\n    ins.voteForCandidate.sendTransaction('0x1234')\n    ins.voteForCandidate.call('0x1234')\n    前两种调用会发送一个交易，修改合约状态，消耗gas。\n    第三种应该不是正确的调用方法。\n    */\n    function voteForCandidate(bytes32 candidate) public {\n        require(validCandidate(candidate));\n        votesReceived[candidate] += 1;\n    }\n\n    // Check if the candidate is valid\n    // 所有的被投票对象是一个数组。如何检测一个元素是否在数组中？没有简单的in操作。只能循环遍历。\n    // 但是，如果数组很大，这样的操作会消耗大量的gas。所以，我们需要一个更好的方法。\n    /**\n    mapping(bytes32 => bool) public candidateMap;\n    \n    function addCandidate() public {\n        for (uint i = 0; i < candidateList.length; i++) {\n            candidateMap[candidateList[i]] = true;\n        }\n    }\n    \n    function validCandidate(bytes32 candidate) view public returns (bool) {\n        return candidateMap[candidate];\n    }\n     */  \n    function validCandidate(bytes32 candidate) public view returns (bool) {\n        for(uint i = 0; i < candidateList.length; i++) {\n            if (candidateList[i] == candidate) {\n                return true;\n            }\n        }\n        return false;\n    }\n\n}",
  "sourcePath": "/Users/linus/Desktop/defi/simple-vote/contracts/Voting.sol",
  "compiler": {
    "name": "solc",
    "version": "0.5.16+commit.9c3226ce.Emscripten.clang"
  },
  "schemaVersion": "3.4.11",
  "updatedAt": "2023-05-15T08:44:42.130Z",
  "networkType": "ethereum",
  "devdoc": {
    "methods": {}
  },
  "userdoc": {
    "methods": {
      "totalVotesFor(bytes32)": {
        "notice": "这个函数不需要指定参数的数据位置，因为参数candidate是一个bytes32类型， 它是一个值类型，而不是一个引用类型。值类型不需要指定数据位置， 因为它们总是通过值传递，并且总是被复制到内存或栈中。 只有引用类型（例如struct, array, mapping等）需要指定数据位置，以便编译器知道它们在哪里存储和访问。"
      },
      "validCandidate(bytes32)": {
        "notice": "mapping(bytes32 => bool) public candidateMap; function addCandidate() public { for (uint i = 0; i < candidateList.length; i++) { candidateMap[candidateList[i]] = true; } } function validCandidate(bytes32 candidate) view public returns (bool) { return candidateMap[candidate]; }"
      },
      "voteForCandidate(bytes32)": {
        "notice": "这个函数在truffle console环境下有如下调用方法： ins.voteForCandidate('0x1234') ins.voteForCandidate.sendTransaction('0x1234') ins.voteForCandidate.call('0x1234') 前两种调用会发送一个交易，修改合约状态，消耗gas。 第三种应该不是正确的调用方法。"
      }
    }
  }
}