{
  "contractName": "Voting",
  "abi": [
    {
      "inputs": [
        {
          "internalType": "bytes32[]",
          "name": "candidateNames",
          "type": "bytes32[]"
        }
      ],
      "payable": false,
      "stateMutability": "nonpayable",
      "type": "constructor"
    },
    {
      "constant": true,
      "inputs": [
        {
          "internalType": "uint256",
          "name": "",
          "type": "uint256"
        }
      ],
      "name": "candidateList",
      "outputs": [
        {
          "internalType": "bytes32",
          "name": "",
          "type": "bytes32"
        }
      ],
      "payable": false,
      "stateMutability": "view",
      "type": "function"
    },
    {
      "constant": true,
      "inputs": [
        {
          "internalType": "uint256",
          "name": "",
          "type": "uint256"
        }
      ],
      "name": "courseMap",
      "outputs": [
        {
          "internalType": "bytes32",
          "name": "",
          "type": "bytes32"
        }
      ],
      "payable": false,
      "stateMutability": "view",
      "type": "function"
    },
    {
      "constant": true,
      "inputs": [],
      "name": "name",
      "outputs": [
        {
          "internalType": "string",
          "name": "",
          "type": "string"
        }
      ],
      "payable": false,
      "stateMutability": "view",
      "type": "function"
    },
    {
      "constant": true,
      "inputs": [
        {
          "internalType": "uint256",
          "name": "",
          "type": "uint256"
        }
      ],
      "name": "schoolList",
      "outputs": [
        {
          "internalType": "bytes8",
          "name": "",
          "type": "bytes8"
        }
      ],
      "payable": false,
      "stateMutability": "view",
      "type": "function"
    },
    {
      "constant": true,
      "inputs": [
        {
          "internalType": "bytes32",
          "name": "",
          "type": "bytes32"
        }
      ],
      "name": "votesReceived",
      "outputs": [
        {
          "internalType": "uint8",
          "name": "",
          "type": "uint8"
        }
      ],
      "payable": false,
      "stateMutability": "view",
      "type": "function"
    },
    {
      "constant": false,
      "inputs": [],
      "name": "initVotes",
      "outputs": [],
      "payable": false,
      "stateMutability": "nonpayable",
      "type": "function"
    },
    {
      "constant": true,
      "inputs": [],
      "name": "getSchools",
      "outputs": [
        {
          "internalType": "bytes8[]",
          "name": "",
          "type": "bytes8[]"
        }
      ],
      "payable": false,
      "stateMutability": "view",
      "type": "function"
    },
    {
      "constant": true,
      "inputs": [],
      "name": "getCourses",
      "outputs": [
        {
          "internalType": "bytes32[]",
          "name": "",
          "type": "bytes32[]"
        }
      ],
      "payable": false,
      "stateMutability": "view",
      "type": "function"
    },
    {
      "constant": true,
      "inputs": [],
      "name": "printVotes",
      "outputs": [
        {
          "internalType": "bytes32[]",
          "name": "",
          "type": "bytes32[]"
        },
        {
          "internalType": "uint8[]",
          "name": "",
          "type": "uint8[]"
        }
      ],
      "payable": false,
      "stateMutability": "view",
      "type": "function"
    },
    {
      "constant": true,
      "inputs": [
        {
          "internalType": "bytes32",
          "name": "candidate",
          "type": "bytes32"
        }
      ],
      "name": "totalVotesFor",
      "outputs": [
        {
          "internalType": "uint8",
          "name": "",
          "type": "uint8"
        }
      ],
      "payable": false,
      "stateMutability": "view",
      "type": "function"
    },
    {
      "constant": false,
      "inputs": [
        {
          "internalType": "bytes32",
          "name": "candidate",
          "type": "bytes32"
        }
      ],
      "name": "voteForCandidate",
      "outputs": [],
      "payable": false,
      "stateMutability": "nonpayable",
      "type": "function"
    },
    {
      "constant": true,
      "inputs": [
        {
          "internalType": "bytes32",
          "name": "candidate",
          "type": "bytes32"
        }
      ],
      "name": "validCandidate",
      "outputs": [
        {
          "internalType": "bool",
          "name": "",
          "type": "bool"
        }
      ],
      "payable": false,
      "stateMutability": "view",
      "type": "function"
    }
  ],
  "bytecode": "0x60806040526040518060a001604052807f4368696e6573650000000000000000000000000000000000000000000000000081526020017f456e676c6973680000000000000000000000000000000000000000000000000081526020017f4d6174680000000000000000000000000000000000000000000000000000000081526020017f436f6d707574657200000000000000000000000000000000000000000000000081526020017f4d757369630000000000000000000000000000000000000000000000000000008152506002906005620000dd92919062000410565b506040518060a001604052807f504b55000000000000000000000000000000000000000000000000000000000077ffffffffffffffffffffffffffffffffffffffffffffffff191677ffffffffffffffffffffffffffffffffffffffffffffffff191681526020017f544855000000000000000000000000000000000000000000000000000000000077ffffffffffffffffffffffffffffffffffffffffffffffff191681526020017f465544414e00000000000000000000000000000000000000000000000000000077ffffffffffffffffffffffffffffffffffffffffffffffff191681526020017f534a54550000000000000000000000000000000000000000000000000000000077ffffffffffffffffffffffffffffffffffffffffffffffff191681526020017f5a4a55000000000000000000000000000000000000000000000000000000000077ffffffffffffffffffffffffffffffffffffffffffffffff191681525060039060056200025992919062000462565b506040518060400160405280600681526020017f566f74696e67000000000000000000000000000000000000000000000000000081525060049080519060200190620002a79291906200051e565b50348015620002b557600080fd5b50604051620010023803806200100283398181016040526020811015620002db57600080fd5b8101908080516040519392919084640100000000821115620002fc57600080fd5b838201915060208201858111156200031357600080fd5b82518660208202830111640100000000821117156200033157600080fd5b8083526020830192505050908051906020019060200280838360005b838110156200036a5780820151818401526020810190506200034d565b5050505090500160405250505080600190805190602001906200038f929190620005a5565b50620003a0620003a760201b60201c565b5062000681565b60008090505b6001805490508110156200040d57600a60008060018481548110620003ce57fe5b9060005260206000200154815260200190815260200160002060006101000a81548160ff021916908360ff1602179055508080600101915050620003ad565b50565b8280548282559060005260206000209081019282156200044f579160200282015b828111156200044e57825182559160200191906001019062000431565b5b5090506200045e9190620005f7565b5090565b828054828255906000526020600020906003016004900481019282156200050b5791602002820160005b83821115620004d357835183826101000a81548167ffffffffffffffff021916908360c01c021790555092602001926008016020816007010492830192600103026200048c565b8015620005095782816101000a81549067ffffffffffffffff0219169055600801602081600701049283019260010302620004d3565b505b5090506200051a91906200061f565b5090565b828054600181600116156101000203166002900490600052602060002090601f016020900481019282601f106200056157805160ff191683800117855562000592565b8280016001018555821562000592579182015b828111156200059157825182559160200191906001019062000574565b5b509050620005a1919062000659565b5090565b828054828255906000526020600020908101928215620005e4579160200282015b82811115620005e3578251825591602001919060010190620005c6565b5b509050620005f39190620005f7565b5090565b6200061c91905b8082111562000618576000816000905550600101620005fe565b5090565b90565b6200065691905b808211156200065257600081816101000a81549067ffffffffffffffff02191690555060010162000626565b5090565b90565b6200067e91905b808211156200067a57600081600090555060010162000660565b5090565b90565b61097180620006916000396000f3fe608060405234801561001057600080fd5b50600436106100b45760003560e01c8063b25800c011610071578063b25800c014610296578063cc1264791461033d578063cc9ab2671461039c578063d53113be146103ca578063db89f1c414610429578063ff4770aa146104a1576100b4565b806306fdde03146100b9578063135431191461013c5780632f265cf71461017e578063392e6678146101c65780637021939f1461020c578063b13c744b14610254575b600080fd5b6100c16104ab565b6040518080602001828103825283818151815260200191508051906020019080838360005b838110156101015780820151818401526020810190506100e6565b50505050905090810190601f16801561012e5780820380516001836020036101000a031916815260200191505b509250505060405180910390f35b6101686004803603602081101561015257600080fd5b8101908080359060200190929190505050610549565b6040518082815260200191505060405180910390f35b6101aa6004803603602081101561019457600080fd5b810190808035906020019092919050505061056a565b604051808260ff1660ff16815260200191505060405180910390f35b6101f2600480360360208110156101dc57600080fd5b81019080803590602001909291905050506105a5565b604051808215151515815260200191505060405180910390f35b6102386004803603602081101561022257600080fd5b81019080803590602001909291905050506105fb565b604051808260ff1660ff16815260200191505060405180910390f35b6102806004803603602081101561026a57600080fd5b810190808035906020019092919050505061061b565b6040518082815260200191505060405180910390f35b61029e61063c565b604051808060200180602001838103835285818151815260200191508051906020019060200280838360005b838110156102e55780820151818401526020810190506102ca565b50505050905001838103825284818151815260200191508051906020019060200280838360005b8381101561032757808201518184015260208101905061030c565b5050505090500194505050505060405180910390f35b610345610761565b6040518080602001828103825283818151815260200191508051906020019060200280838360005b8381101561038857808201518184015260208101905061036d565b505050509050019250505060405180910390f35b6103c8600480360360208110156103b257600080fd5b81019080803590602001909291905050506107b9565b005b6103d261080c565b6040518080602001828103825283818151815260200191508051906020019060200280838360005b838110156104155780820151818401526020810190506103fa565b505050509050019250505060405180910390f35b6104556004803603602081101561043f57600080fd5b81019080803590602001909291905050506108a2565b604051808277ffffffffffffffffffffffffffffffffffffffffffffffff191677ffffffffffffffffffffffffffffffffffffffffffffffff1916815260200191505060405180910390f35b6104a96108d6565b005b60048054600181600116156101000203166002900480601f0160208091040260200160405190810160405280929190818152602001828054600181600116156101000203166002900480156105415780601f1061051657610100808354040283529160200191610541565b820191906000526020600020905b81548152906001019060200180831161052457829003601f168201915b505050505081565b6002818154811061055657fe5b906000526020600020016000915090505481565b6000610575826105a5565b61057e57600080fd5b60008083815260200190815260200160002060009054906101000a900460ff169050919050565b600080600090505b6001805490508110156105f05782600182815481106105c857fe5b906000526020600020015414156105e35760019150506105f6565b80806001019150506105ad565b50600090505b919050565b60006020528060005260406000206000915054906101000a900460ff1681565b6001818154811061062857fe5b906000526020600020016000915090505481565b6060806000600180549050905060608160405190808252806020026020018201604052801561067a5781602001602082028038833980820191505090505b5090506060826040519080825280602002602001820160405280156106ae5781602001602082028038833980820191505090505b50905060008090505b8381101561075357600181815481106106cc57fe5b90600052602060002001548382815181106106e357fe5b602002602001018181525050600080600183815481106106ff57fe5b9060005260206000200154815260200190815260200160002060009054906101000a900460ff1682828151811061073257fe5b602002602001019060ff16908160ff168152505080806001019150506106b7565b508181945094505050509091565b606060028054806020026020016040519081016040528092919081815260200182805480156107af57602002820191906000526020600020905b81548152602001906001019080831161079b575b5050505050905090565b6107c2816105a5565b6107cb57600080fd5b600160008083815260200190815260200160002060008282829054906101000a900460ff160192506101000a81548160ff021916908360ff16021790555050565b6060600380548060200260200160405190810160405280929190818152602001828054801561089857602002820191906000526020600020906000905b82829054906101000a900460c01b77ffffffffffffffffffffffffffffffffffffffffffffffff1916815260200190600801906020826007010492830192600103820291508084116108495790505b5050505050905090565b600381815481106108af57fe5b9060005260206000209060049182820401919006600802915054906101000a900460c01b81565b60008090505b60018054905081101561093957600a600080600184815481106108fb57fe5b9060005260206000200154815260200190815260200160002060006101000a81548160ff021916908360ff16021790555080806001019150506108dc565b5056fea265627a7a7231582015b6650dcd521a675fb10fe265418bf17a185435996e1dd117ab48fb1dab56a464736f6c63430005100032",
  "source": "// SPDX-License-Identifier: MIT\n\npragma solidity ^0.5.16;\n\ncontract Voting {\n    mapping (bytes32 => uint8) public votesReceived;\n    bytes32[] public candidateList;\n    bytes32[] public courseMap = [bytes32(\"Chinese\"), \"English\", \"Math\", \"Computer\", \"Music\"];\n    bytes8[] public schoolList = [bytes8(\"PKU\"), \"THU\", \"FUDAN\", \"SJTU\", \"ZJU\"];\n    string public name = \"Voting\";\n\n    // bytes32[] candidateList = [bytes32(\"Alice\"), bytes32(\"Bob\")];\n    //  Data location must be \"memory\" for parameter in function, but none was given.\n    constructor(bytes32[] memory candidateNames) public{\n        candidateList = candidateNames;\n        initVotes();\n    }\n\n    function initVotes() public {\n        for (uint i = 0; i < candidateList.length; i++) {\n            votesReceived[candidateList[i]] = 10;\n        }\n    }\n    \n    /**\n    '0x504b550000000000',\n    '0x5448550000000000',\n    '0x465544414e000000',\n    '0x534a545500000000',\n    '0x5a4a550000000000'\n    */\n    function getSchools() view public returns (bytes8[] memory) {\n        return schoolList;\n    }\n\n    /**\n    '0x4368696e65736500000000000000000000000000000000000000000000000000',\n    '0x456e676c69736800000000000000000000000000000000000000000000000000',\n    '0x4d61746800000000000000000000000000000000000000000000000000000000',\n    '0x436f6d7075746572000000000000000000000000000000000000000000000000',\n    '0x4d75736963000000000000000000000000000000000000000000000000000000'\n     */\n    function getCourses() view public returns (bytes32[] memory) {\n        return courseMap;\n    }\n\n    // ins.printVotes().then(function(res){console.log(res[0]); console.log(res[1])})\n    // ins.printVotes().then(function(res){for(i=0;i<3;i++){console.log(res[0][i]+': '+res[1][i])}})\n    function printVotes() view public returns (bytes32[] memory, uint8[] memory) {\n        uint len = candidateList.length;\n        // In Solidity, when declaring a variable inside a function, \n        // you need to specify the data location of the variable \n        // using the memory or storage keyword.\n        bytes32[] memory names = new bytes32[](len);\n        uint8[] memory votes = new uint8[](len);\n        \n        for (uint i = 0; i < len; i++) {\n            names[i] = candidateList[i];\n            votes[i] = votesReceived[candidateList[i]];\n        }\n        return (names, votes);\n    }\n\n    // 获取某个候选人的总票数\n    /**\n    这个函数在truffle console环境下有如下调用方法：\n    ins.totalVotesFor('0x1234')\n    ins.totalVotesFor.call('0x1234')\n    ins.totalVotesFor.sendTransaction('0x1234')\n    前两种调用仅仅是一个call，不会修改合约状态，也不会消耗gas。\n    第三种调用会发送一个交易。\n     */\n    /**\n    这个函数不需要指定参数的数据位置，因为参数candidate是一个bytes32类型，\n    它是一个值类型，而不是一个引用类型。值类型不需要指定数据位置，\n    因为它们总是通过值传递，并且总是被复制到内存或栈中。\n    只有引用类型（例如struct, array, mapping等）需要指定数据位置，以便编译器知道它们在哪里存储和访问。\n     */\n    function totalVotesFor(bytes32 candidate) view public returns (uint8) {\n        require(validCandidate(candidate));\n        return votesReceived[candidate];\n    }\n\n    // 投票给某个候选人\n    /**\n    这个函数在truffle console环境下有如下调用方法：\n    ins.voteForCandidate('0x1234')\n    ins.voteForCandidate.sendTransaction('0x1234')\n    ins.voteForCandidate.call('0x1234')\n    前两种调用会发送一个交易，修改合约状态，消耗gas。\n    第三种应该不是正确的调用方法。\n    */\n    function voteForCandidate(bytes32 candidate) public {\n        require(validCandidate(candidate));\n        votesReceived[candidate] += 1;\n    }\n\n    // Check if the candidate is valid\n    // 所有的被投票对象是一个数组。如何检测一个元素是否在数组中？没有简单的in操作。只能循环遍历。\n    // 但是，如果数组很大，这样的操作会消耗大量的gas。所以，我们需要一个更好的方法。\n    /**\n    mapping(bytes32 => bool) public candidateMap;\n    \n    function addCandidate() public {\n        for (uint i = 0; i < candidateList.length; i++) {\n            candidateMap[candidateList[i]] = true;\n        }\n    }\n    \n    function validCandidate(bytes32 candidate) view public returns (bool) {\n        return candidateMap[candidate];\n    }\n     */  \n    function validCandidate(bytes32 candidate) public view returns (bool) {\n        for(uint i = 0; i < candidateList.length; i++) {\n            if (candidateList[i] == candidate) {\n                return true;\n            }\n        }\n        return false;\n    }\n\n}",
  "sourcePath": "/Users/linus/Desktop/defi/simple-vote/contracts/Voting.sol",
  "compiler": {
    "name": "solc",
    "version": "0.5.16+commit.9c3226ce.Emscripten.clang"
  },
  "schemaVersion": "3.4.11",
  "updatedAt": "2023-05-08T16:23:44.621Z",
  "networkType": "ethereum",
  "devdoc": {
    "methods": {}
  },
  "userdoc": {
    "methods": {
      "getCourses()": {
        "notice": "'0x4368696e65736500000000000000000000000000000000000000000000000000', '0x456e676c69736800000000000000000000000000000000000000000000000000', '0x4d61746800000000000000000000000000000000000000000000000000000000', '0x436f6d7075746572000000000000000000000000000000000000000000000000', '0x4d75736963000000000000000000000000000000000000000000000000000000'"
      },
      "getSchools()": {
        "notice": "'0x504b550000000000', '0x5448550000000000', '0x465544414e000000', '0x534a545500000000', '0x5a4a550000000000'"
      },
      "totalVotesFor(bytes32)": {
        "notice": "这个函数不需要指定参数的数据位置，因为参数candidate是一个bytes32类型， 它是一个值类型，而不是一个引用类型。值类型不需要指定数据位置， 因为它们总是通过值传递，并且总是被复制到内存或栈中。 只有引用类型（例如struct, array, mapping等）需要指定数据位置，以便编译器知道它们在哪里存储和访问。"
      },
      "validCandidate(bytes32)": {
        "notice": "mapping(bytes32 => bool) public candidateMap; function addCandidate() public { for (uint i = 0; i < candidateList.length; i++) { candidateMap[candidateList[i]] = true; } } function validCandidate(bytes32 candidate) view public returns (bool) { return candidateMap[candidate]; }"
      },
      "voteForCandidate(bytes32)": {
        "notice": "这个函数在truffle console环境下有如下调用方法： ins.voteForCandidate('0x1234') ins.voteForCandidate.sendTransaction('0x1234') ins.voteForCandidate.call('0x1234') 前两种调用会发送一个交易，修改合约状态，消耗gas。 第三种应该不是正确的调用方法。"
      }
    }
  }
}